:20F000000A122183B240805A20014A43B01254F00C4AB01248F0B140E80300008193000070
:20F0200005249183000081930000FB235A537AF00F00EE3F31400003B0126CF00C43B0126B
:20F0400000F01C43B01266F07CF00F00D24C70F029003041F2432A00C2432900304132D0B6
:10F060001000FD3F03430343FF3F03431C43304174
:0BF070004079243019120278001808C3
:02FFDE00FFFF23
:02FFE0005EF0D1
:02FFE4005EF0CD
:02FFE6005EF0CB
:02FFEA005EF0C7
:02FFEC005EF0C5
:02FFEE005EF0C3
:02FFF0005EF0C1
:02FFF2005EF0BF
:02FFF4005EF0BD
:02FFF6005EF0BB
:02FFF8005EF0B9
:02FFFA005EF0B7
:02FFFC005EF0B5
:02FFFE0034F0DD
:00000001FF
